S00E000052435F4341522E737265634C
S113000045C0000061C000005FC000005DC000008A
S11300105BC00000A2C20000EDC2000038C30000B3
S113002053C0000051C000004FC000004DC000008C
S11300304BC0000049C0000047C0000045C000009C
S1130040A1C0000041C00000F3C100003DC0000099
S11300503BC0000039C0000037C0000035C00000BC
S113006033C0000031C000002FC000002DC00000CC
S11300702BC0000029C0000044C2000025C00000BD
S113008023C0000021C000001FC0000011241FBEB7
S1130090CFEFD0E1DEBFCDBF11E0A0E0B1E0EEE6EE
S11300A0F1E100E00BBF02C007900D92A834B10744
S11300B0D9F721E0A8E4B1E001C01D92A73CB20742
S11300C0E1F79DD10C94B5089BCF84B38F7784BBA3
S11300D0089583B3807890914801911111C08823C9
S11300E079F02FEF8DEE92E0215080409040E1F7BF
S11300F000C0000081E08093480180E090E0089512
S1130100913081F4811111C0109248012FEF86E7DC
S113011091E0215080409040E1F700C0000081E070
S113012090E0089580E090E0089580E090E00895E4
S1130130D0DF892B71F081E090E02091490130916A
S11301404A01232B11F080E090E090934A018093C0
S113015049018091490190914A01892B31F0E5E6EA
S1130160F0E08081806180830895E5E6F0E080819D
S11301708F7E808388C00895E4E6F0E0808180610A
S1130180808308951F920F920FB60F9211242F931C
S11301908F939F93AF93BF9386E082BF80914F016B
S11301A090915001A0915101B09152010196A11D6D
S11301B0B11D80934F0190935001A0935101B093CE
S11301C05201883E9340A105B105D8F010924F0129
S11301D010925001109251011092520180914B01E2
S11301E090914C01A0914D01B0914E010196A11D39
S11301F0B11D80934B0190934C01A0934D01B0939A
S11302004E01BF91AF919F918F912F910F900FBE8F
S11302100F901F9018959C01E2E6F0E09081907F8A
S113022090839081956090833BBD2ABD39BD28BDE4
S113023008959C01E2E6F0E09081907F90839081A4
S11302409A6090833BBD2ABD39BD28BD08959C01A9
S1130250E2E6F0E09081907F9083908195609083B6
S11302601BBC1ABC39BD28BD08959C01E2E6F0E030
S11302709081907F90839081956090833BBD2ABD4F
S113028019BC18BC08951BBC1ABC19BC18BCE2E606
S1130290F0E08081807F808380818F6080830895F7
S11302A08EE091E085D48AE892E0B5DF8091BB01CD
S11302B09091BC014E971CF488E592E0D6DF8091C2
S11302C0BD019091BE014E97ECF4DDDF2091BF019A
S11302D03091C0018091BB019091BC01281739076E
S11302E01CF488E592E0B3DF2091BF013091C00196
S11302F08091BB019091BC01821793071CF488E59F
S113030092E0B3DF8091BF019091C0014E971CF43D
S113031088E592E09CDF8091BD019091BE01049735
S1130320FCF484EF91E085DF2091BF013091C0019E
S11303308091BB019091BC01281739071CF488E512
S113034092E085DF2091BF013091C0018091BB0113
S11303509091BC01821793071CF488E592E085CF45
S113036008958091BA018C3499F028F4823461F0B4
S1130370863431F00895823579F0833589F0089513
S113038080EB94E048CF08958CEB92E052CF08952F
S113039080E293E05CCF089580E293E066CF089515
S11303A072CF0895E1E6F0E080818F60808387B3A7
S11303B0806687BB8EB583608EBD8EB588618EBD29
S11303C08FB582608FBD8FB580688FBD8FB5806219
S11303D08FBDE2E6F0E08081807F8083808185604C
S11303E080838FEF93E097BD86BD089586E082BF3A
S11303F083B7846083BF87B7816087BF0895BCDEFD
S113040064DE55D067D0F2DFCDDF8ED180E091E09D
S11304109093C4018093C3017894A3DF01D288DE52
S11304208091490190914A01892BB9F339DFF5CFC5
S11304301F920F920FB60F9211240BB60F922F93A7
S11304403F934F935F938F93EF93FF938CB18D30D2
S113045011F08A3079F4E0915301F0915401EA5A91
S1130460FE4F1082109254011092530181E0809348
S113047055010FC02091530130915401A9014F5FE0
S11304805F4F5093540140935301F901EA5AFE4FD0
S11304908083FF91EF918F915F914F913F912F91C5
S11304A00F900BBE0F900FBE0F901F9018951092D7
S11304B090008FEC89B98BB182608BB9E5E9F0E0EB
S11304C080818660808388E98AB908955D9BFECF28
S11304D08CB90895EAE9F0E0808188698083EBE9CA
S11304E0F0E0808182608083109298008FEC80938A
S11304F09900089580919B008823E4F780919C00E3
S113050008951F920F920FB60F9211240BB60F92FB
S11305102F933F934F935F936F937F938F939F9307
S1130520AF93BF93EF93FF93E5DF8093BA0180917C
S1130530BA01CCDFFF91EF91BF91AF919F918F9161
S11305407F916F915F914F913F912F910F900BBECF
S11305500F900FBE0F901F9018951F920F920FB619
S11305600F9211240BB60F922F933F934F935F93E7
S11305706F937F938F939F93AF93BF93EF93FF9367
S11305800C9B05C0109289001092880020C06091D5
S113059088007091890080E090E006D220E034E287
S11305A044E759E48FD220E030E040E854E48AD2B2
S11305B020E034E244E75BE45ED120E030E048E64A
S11305C052E459D1C0D17093BC016093BB01FF9137
S11305D0EF91BF91AF919F918F917F916F915F91B7
S11305E04F913F912F910F900BBE0F900FBE0F9024
S11305F01F9018951F920F920FB60F9211240BB6ED
S11306000F922F933F934F935F936F937F938F93A7
S11306109F93AF93BF93EF93FF930D9B05C01092ED
S113062089001092880020C0609188007091890030
S113063080E090E0B9D120E034E244E759E442D2CA
S113064020E030E040E854E43DD220E034E244E7E6
S11306505BE411D120E030E048E652E40CD173D1E0
S11306607093BE016093BD01FF91EF91BF91AF9173
S11306709F918F917F916F915F914F913F912F91B6
S11306800F900BBE0F900FBE0F901F9018951F92E6
S11306900F920FB60F9211240BB60F922F933F9324
S11306A04F935F936F937F938F939F93AF93BF9376
S11306B0EF93FF930E9B05C010928900109288005F
S11306C020C0609188007091890080E090E06CD136
S11306D020E034E244E759E4F5D120E030E040E89A
S11306E054E4F0D120E034E244E75BE4C4D020E0F9
S11306F030E048E652E4BFD026D17093C001609345
S1130700BF01FF91EF91BF91AF919F918F917F9125
S11307106F915F914F913F912F910F900BBE0F906E
S11307200FBE0F901F9018958AB381608ABB82B167
S11307308F7E82B98AB781608ABFEAE8F0E080815F
S11307408560808389B7806189BF8AB382608ABBF0
S113075082B18F7D82B98AB784608ABF80818560C7
S1130760808389B7806289BF8AB384608ABB82B17F
S11307708F7B82B98AB780618ABF808185608083DC
S113078089B7806489BF08958BB38E7F8BBB25E0C6
S11307902A95F1F700008BB381608BBB80E58A95C5
S11307A0F1F78BB38E7F8BBB9FEF20E782E09150F4
S11307B020408040E1F700C000008BB38D7F8BBBED
S11307C095E09A95F1F700008BB382608BBB20E52E
S11307D02A95F1F78BB38D7F8BBB8FEF90E722E0E7
S11307E0815090402040E1F700C000008BB38B7F24
S11307F08BBB85E08A95F1F700008BB384608BBBDB
S113080090E59A95F1F78BB38B7F8BBB2FEF80E745
S113081092E0215080409040E1F700C0000008952C
S1130820B3DF8091BB019091BC019F938F938DE1C5
S113083091E09F938F93A9D18091BD019091BE01C6
S11308409F938F938AE291E09F938F939ED180919F
S1130850BF019091C0019F938F9389E391E09F938F
S11308608F9393D18DB79EB70C960FB6F8949EBF15
S11308700FBE8DBF08950CD0EBC0E3D040F0DAD0AA
S113088030F021F45F3F19F0CCC0511115C1CFC035
S1130890F0D098F39923C9F35523B1F3951B550B65
S11308A0BB27AA2762177307840738F09F5F5F4F3F
S11308B0220F331F441FAA1FA9F333D00E2E3AF080
S11308C0E0E830D091505040E695001CCAF729D09A
S11308D0FE2F27D0660F771F881FBB1F26173707E9
S11308E04807AB07B0E809F0BB0B802DBF01FF2719
S11308F093585F4F2AF09E3F510568F092C0DCC0C8
S11309005F3FECF3983EDCF3869577956795B79552
S1130910F7959F5FC9F7880F911D9695879597F96D
S11309200895E1E0660F771F881FBB1F62177307E6
S11309308407BA0720F0621B730B840BBA0BEE1FFB
S113094088F7E095089504D06894B111B5C008956E
S113095098D088F09F5790F0B92F9927B751A0F0FD
S1130960D1F0660F771F881F991F1AF0BA95C9F73F
S113097012C0B13081F09FD0B1E008959CC0672FC0
S1130980782F8827B85F39F0B93FCCF386957795EF
S11309906795B395D9F73EF49095809570956195D8
S11309A07F4F8F4F9F4F0895E89409C097FB3EF403
S11309B090958095709561957F4F8F4F9F4F9923A8
S11309C0A9F0F92F96E9BB279395F6958795779526
S11309D06795B795F111F8CFFAF4BB0F11F460FFE6
S11309E01BC06F5F7F4F8F4F9F4F16C0882311F03E
S11309F096E911C0772321F09EE8872F762F05C052
S1130A00662371F096E8862F70E060E02AF09A95EC
S1130A10660F771F881FDAF7880F9695879597F9E1
S1130A20089597F99F6780E870E060E008959FEF6C
S1130A3080EC089500240A94161617061806090671
S1130A40089500240A941216130614060506089540
S1130A50092E0394000C11F4882352F0BB0F40F4C8
S1130A60BF2B11F460FF04C06F5F7F4F8F4F9F4F08
S1130A70089557FD9058440F551F59F05F3F71F08A
S1130A804795880F97FB991F61F09F3F79F08795F1
S1130A900895121613061406551FF2CF4695F1DF7A
S1130AA008C0161617061806991FF1CF869571050A
S1130AB0610508940895E894BB2766277727CB013E
S1130AC097F908950BD0C4CFB5DF28F0BADF18F03A
S1130AD0952309F0A6CFABCF1124EECFCADFA0F344
S1130AE0959FD1F3950F50E0551F629FF001729FBF
S1130AF0BB27F00DB11D639FAA27F00DB11DAA1FDE
S1130B00649F6627B00DA11D661F829F2227B00D2A
S1130B10A11D621F739FB00DA11D621F839FA00DB5
S1130B20611D221F749F3327A00D611D231F849F05
S1130B30600D211D822F762F6A2F11249F5750405C
S1130B408AF0E1F088234AF0EE0FFF1FBB1F661FF7
S1130B50771F881F91505040A9F79E3F510570F0B0
S1130B6060CFAACF5F3FECF3983EDCF38695779590
S1130B706795B795F795E7959F5FC1F7FE2B880FAB
S1130B80911D9695879597F90895CF93DF93CDB7E7
S1130B90DEB7AE014B5F5F4FFA0161917191AF0116
S1130BA08091C3019091C40133D0DF91CF91089516
S1130BB00F931F93CF93DF93E091C301F091C4018E
S1130BC0238121FF1BC08C01D0E0C0E0F80181919A
S1130BD08F016091C3017091C401DB011896ED91FE
S1130BE0FC911997882331F00995892B79F3DFEF6C
S1130BF0CFEFECCF8AE00995892B19F08FEF9FEFA7
S1130C0002C08D2F9C2FDF91CF911F910F910895DA
S1130C102F923F924F925F926F927F928F929F9208
S1130C20AF92BF92CF92DF92EF92FF920F931F93F6
S1130C30CF93DF93CDB7DEB72B970FB6F894DEBF13
S1130C400FBECDBF6C017B018A01FC0117821682A5
S1130C50838181FFBFC1CE0101963C01F6019381DE
S1130C60F70193FD859193FF81917F01882309F416
S1130C70ADC1853239F493FD859193FF81917F0154
S1130C80853221F4B60190E0D6D1E8CF912C212C05
S1130C90312CFFE1F315D8F08B3279F038F480323F
S1130CA079F08332A1F4232D20611DC08D3261F0CF
S1130CB0803369F4232D216016C0832D8260382E81
S1130CC0E32DE4603E2E2AC0F32DF8601DC037FCEE
S1130CD02DC020ED280F2A3040F08E32B9F436FCB6
S1130CE075C1232D2064322E19C036FE06C08AE059
S1130CF0989E200D1124922E11C0EAE02E9E200D04
S1130D001124222EF32DF0623F2E08C08C3621F4DC
S1130D10832D8068382E02C0883641F4F70193FD94
S1130D20859193FF81917F018111B3CF982F9F7D8E
S1130D309554933028F40C5F1F4F9FE399830DC0A3
S1130D40833631F0833771F0833509F055C020C004
S1130D50F801808189830E5F1F4F88248394912C2E
S1130D60530112C02801F2E04F0E511CF801A0807B
S1130D70B18036FE03C0692D70E002C06FEF7FEFD3
S1130D80C5014ED14C018201F32DFF773F2E15C0D2
S1130D90280122E0420E511CF801A080B18036FEE9
S1130DA003C0692D70E002C06FEF7FEFC5012DD144
S1130DB04C01F32DF0683F2E820133FC19C0822DC3
S1130DC090E088169906A0F4B60180E290E033D151
S1130DD02A94F5CFF50137FC859137FE81915F01A7
S1130DE0B60190E028D121102A9421E0821A9108BA
S1130DF08114910479F7E1C0843611F0893639F50C
S1130E00F80137FE07C060817181828193810C5F94
S1130E101F4F08C060817181072E000C880B990B4D
S1130E200E5F1F4FF32DFF763F2E97FF09C090955D
S1130E308095709561957F4F8F4F9F4FF0683F2E3F
S1130E402AE030E0A30133D1882E861844C08537C8
S1130E5031F4232D2F7EB22E2AE030E025C0932DCD
S1130E60997FB92E8F36C1F018F4883579F0AEC069
S1130E70803719F0883721F0A9C0E92FE061BE2E30
S1130E80B4FE0DC0FB2DF460BF2E09C034FE0AC0B1
S1130E90292F2660B22E06C028E030E005C020E1EC
S1130EA030E002C020E132E0F801B7FE07C0608103
S1130EB07181828193810C5F1F4F06C060817181B3
S1130EC080E090E00E5F1F4FA301F1D0882E8618BA
S1130ED0FB2DFF773F2E36FE0DC0232D2E7FA22E35
S1130EE0891458F434FE0BC032FC09C0832D8E7E65
S1130EF0A82E05C0B82CA32C03C0B82C01C0B92C53
S1130F00A4FE0FC0FE01E80DF11D8081803321F4A1
S1130F109A2D997EA92E09C0A2FE06C0B394B3945B
S1130F2004C08A2D867809F0B394A3FC10C0A0FEF7
S1130F3006C0B21480F4280C922C9B180DC0B21475
S1130F4058F4B60180E290E076D0B394F8CFB214AE
S1130F5018F42B1802C0982C212CA4FE0FC0B60143
S1130F6080E390E068D0A2FE16C0A1FC03C088E72D
S1130F7090E002C088E590E0B6010CC08A2D867826
S1130F8051F0A1FE02C08BE201C080E2A7FC8DE219
S1130F90B60190E050D0891430F4B60180E390E0BB
S1130FA04AD09A94F8CF8A94F301E80DF11D808118
S1130FB0B60190E040D08110F6CF222009F44ECE45
S1130FC0B60180E290E037D02A94F7CFF60186810B
S1130FD0978102C08FEF9FEF2B960FB6F894DEBF78
S1130FE00FBECDBFDF91CF911F910F91FF90EF9076
S1130FF0DF90CF90BF90AF909F908F907F906F9035
S11310005F904F903F902F900895FC0105906150A0
S113101070400110D8F7809590958E0F9F1F08950A
S1131020FC016150704001900110D8F780959095B3
S11310308E0F9F1F08950F931F93CF93DF93FB0190
S1131040238121FD03C08FEF9FEF2CC022FF16C028
S113105046815781248135814217530744F4A08186
S1131060B1819D012F5F3F4F318320838C93268173
S113107037812F5F3F4F3783268314C08B01EC01E8
S1131080FB010084F185E02D0995892BE1F6D80157
S113109016968D919C911797019617969C938E9313
S11310A01697CE01DF91CF911F910F910895FA0108
S11310B0AA27283051F1203181F1E8946F936E7F93
S11310C06E5F7F4F8F4F9F4FAF4FB1E03ED0B4E084
S11310D03CD0670F781F891F9A1FA11D680F791FC5
S11310E08A1F911DA11D6A0F711D811D911DA11DD6
S11310F020D009F468943F912AE0269F11243019E6
S1131100305D3193DEF6CF010895462F4770405D80
S11311104193B3E00FD0C9F7F6CF462F4F70405D2F
S11311204A3318F0495D31FD4052419302D0A9F78A
S1131130EACFB4E0A6959795879577956795BA9584
S1131140C9F700976105710508959B01AC010A2E4A
S113115006945795479537952795BA95C9F7620F21
S1111160731F841F951FA01D0895F894FFCFE0
S113116E000000020000000066020000000061752D
S113117E746F20647269766520212121006C656686
S113118E743A20253564636D0A0063656E74657266
S113119E3A20253564636D0A0072696768743A20D3
S10B11AE253564636D0A00009D
S9030000FC
